:1000000019C033C032C031C030C02FC02EC02DC087
:100010002CC02BC02AC029C028C027C026C025C09C
:1000200024C023C022C021C020C01FC01EC01DC0CC
:100030001CC01BC011241FBECFEFD4E0DEBFCDBF5C
:1000400011E0A0E0B1E0E2EDFAE002C005900D920F
:10005000A234B107D9F711E0A2E4B1E001C01D92CA
:10006000A334B107E1F746D232C5CACFEF92FF926F
:100070000F931F93CF93DF93CDB7DEB7A4970FB63F
:10008000F894DEBF0FBECDBF9F938F9381E091E0C8
:100090009F938F931F9210E11F937E0182E1E80EE0
:1000A000F11CFF92EF926BA37CA344D27CA17F93BF
:1000B0006BA16F938AE091E09F938F931F921F93A0
:1000C0008E010F5F1F4F1F930F9334D222D1C701B0
:1000D00076D162E080E060D1C80171D10FB6F894AA
:1000E000DEBF0FBECDBFA4960FB6F894DEBF0FBE25
:1000F000CDBFDF91CF911F910F91FF90EF900895A9
:1001000008D185E191E05BD162E080E045D181E2F8
:1001100091E055D18FE39CE90197F1F700C0000011
:10012000189BFECF9FE72AE186E091502040804057
:10013000E1F700C000009FE72AE186E091502040EF
:100140008040E1F700C000009FE72AE186E091507F
:1001500020408040E1F700C000009FE72AE186E0F0
:10016000915020408040E1F700C000009FE72AE165
:1001700086E0915020408040E1F700C000009FE7FA
:100180002AE186E0915020408040E1F700C0000065
:100190000895BFD08BE291E012D162E080E0FCD004
:1001A00086E391E00CD18FE39CE90197F1F700C061
:1001B0000000199BFECF9FE72AE186E09150204086
:1001C0008040E1F700C000009FE72AE186E09150FF
:1001D00020408040E1F700C000009FE72AE186E070
:1001E000915020408040E1F700C000009FE72AE1E5
:1001F00086E0915020408040E1F700C000009FE77A
:100200002AE186E0915020408040E1F700C00000E4
:100210009FE72AE186E0915020408040E1F700C04E
:10022000000008951F93CF93DF931F92CDB7DEB7E1
:10023000809100012ED1809142012DD18091000149
:100240003BD13CD1182F44D189834CD1A2DF212F3F
:1002500030E0322F22278981A901480F511DCA01A0
:100260000F90DF91CF911F9108951F93CF93DF934C
:100270001F92CDB7DEB7182F80910001998309D165
:100280008091420108D19981892F05D1812F03D115
:1002900029D10F90DF91CF911F9132CF20982198D3
:1002A000289A299A3898409880E480937C00EAE75D
:1002B000F0E086E080838081806E808308955B9A81
:1002C00085E38A95F1F700005B9808959BB19F70D4
:1002D0009BB99BB1807F892B8BB9F1CFCF93C82F6E
:1002E0005A9AF4DF8C2F8295807FF0DF8AE78A9517
:1002F000F1F700C0CF910895CF93C82F5A98E6DF49
:100300008C2F8295807FE2DF80E78A95F1F7CF918D
:10031000089581E0F1DF8FE99FE00197F1F700C0D8
:10032000000008958AB18C6F8AB98BB183708BB944
:100330008FE295E70197F1F700C0000080E3C6DF88
:100340008FE097E20197F1F700C00000B8DF8FEC73
:1003500097E00197F1F700C00000B1DF8FEC97E064
:100360000197F1F700C0000080E2B0DF8FE097E274
:100370000197F1F700C0000088E2BEDF8CE0BCDF2F
:1003800086E0BADFC6CF82E0B7DF8FE99FE0019752
:10039000F1F700C000000895623059F018F46130A0
:1003A00031F00895633039F0643039F008958058A1
:1003B00005C0805403C0805701C080539DCFCF93A8
:1003C000DF93EC018991882311F088DFFBCFDF9167
:1003D000CF910895EF92FF921F93CF93DF9300D0B8
:1003E000CDB7DEB728E0829FC00111248064698305
:1003F0007A8382DF6981E62E7A81F72E18E0F70191
:1004000081917F016BDF1150D1F70F900F90DF9139
:10041000CF911F91FF90EF90089594EA9093BC00C4
:100420009091BC0097FFFCCF9091B900987F9830D5
:1004300029F09091B900987F9031A9F48093BB0086
:1004400084E88093BC008091BC0087FFFCCF809142
:10045000B900887F883149F08091B900887F803465
:1004600021F082E0089581E0089580E008956B30E6
:1004700008F46BE03D983C98882319F0459A449A1B
:1004800002C0459844986093B80081E08093B90019
:1004900008958E7FC2CF8093BB0084E88093BC0018
:1004A0008091BC0087FFFCCF9091B900987F81E0DC
:1004B000983209F480E008958160AFCF84EC809396
:1004C000BC008091BC0087FFFCCF8091BB000895E9
:1004D00084E88093BC008091BC0087FFFCCF8091B2
:1004E000BB00089584ED8093BC008091BC0084FD26
:1004F000FCCF0895D3DE16DF6AE081E0B8DFC0E00C
:10050000D0E02FEF80E792E0215080409040E1F76B
:1005100000C000000091780010917900BE01C80170
:10052000A5DD189902C0C801A0DE1999EACF7ADECC
:10053000EC01E7CFAEE0B0E0EFE9F2E09FC20D8959
:100540001E898F89988D26E02C831A83098397FF53
:1005500002C080E090E801979E838D83AE01455EE6
:100560005F4F698D7A8DCE01019611D04D815E81EC
:1005700057FD0AC02F813885421753070CF49A01A2
:10058000F801E20FF31F10822E96E4E093C2ACE074
:10059000B0E0ECECF2E064C27C016B018A01FC018A
:1005A00017821682838181FFB0C1CE0101964C0172
:1005B000F7019381F60193FD859193FF81916F017E
:1005C000882309F49EC1853239F493FD859193FF08
:1005D00081916F01853221F4B70190E0B1D1E8CF6C
:1005E000512C312C20E02032A0F48B3269F030F411
:1005F000803259F0833269F420612CC08D3239F099
:10060000803339F4216026C02260246023C0286032
:1006100021C027FD27C030ED380F3A3078F426FF8F
:1006200006C0FAE05F9E300D1124532E13C08AE0FD
:10063000389E300D1124332E20620CC08E3221F4EE
:1006400026FD5FC1206406C08C3611F4206802C00C
:10065000883641F4F60193FD859193FF81916F01F6
:100660008111C1CF982F9F7D9554933028F40C5F52
:100670001F4FFFE3F9830DC0833631F0833771F0EC
:10068000833509F057C021C0F801808189830E5F4E
:100690001F4F44244394512C540114C03801F2E0FC
:1006A0006F0E711CF801A080B18026FF03C0652D7C
:1006B00070E002C06FEF7FEFC5012C8736D12C01AF
:1006C00083012C852F77222E16C03801F2E06F0EA1
:1006D000711CF801A080B18026FF03C0652D70E079
:1006E00002C06FEF7FEFC5012C8714D12C012C8540
:1006F0002068222E830123FC19C0832D90E0481628
:100700005906A0F4B70180E290E01AD13A94F5CFEF
:10071000F50127FC859127FE81915F01B70190E0EB
:100720000FD131103A94F1E04F1A5108411451049D
:1007300079F7DEC0843611F0893631F5F80127FFEC
:1007400007C060817181828193810C5F1F4F08C057
:1007500060817181882777FD8095982F0E5F1F4FEC
:100760002F76B22E97FF09C0909580957095619570
:100770007F4F8F4F9F4F2068B22E2AE030E0A401B8
:1007800011D1A82EA81843C0853729F42F7EB22E88
:100790002AE030E025C0F22FF97FBF2E8F36C1F05E
:1007A00018F4883579F0ADC0803719F0883721F01A
:1007B000A8C02F2F2061B22EB4FE0DC08B2D8460F7
:1007C000B82E09C024FF0AC09F2F9660B92E06C01C
:1007D00028E030E005C020E130E002C020E132E056
:1007E000F801B7FE07C060817181828193810C5F3F
:1007F0001F4F06C06081718180E090E00E5F1F4F47
:10080000A401D0D0A82EA818FB2DFF77BF2EB6FECE
:100810000BC02B2D2E7FA51450F4B4FE0AC0B2FCE1
:1008200008C02B2D2E7E05C07A2C2B2D03C07A2CD0
:1008300001C0752C24FF0DC0FE01EA0DF11D808161
:10084000803311F4297E09C022FF06C0739473948B
:1008500004C0822F867809F0739423FD12C020FF14
:1008600006C05A2C731418F4530C5718732C7314B5
:1008700060F4B70180E290E02C8762D073942C85FD
:10088000F6CF731410F4371801C0312C24FF11C0B7
:10089000B70180E390E02C8753D02C8522FF16C04F
:1008A00021FF03C088E590E002C088E790E0B7012F
:1008B0000CC0822F867851F021FD02C080E201C079
:1008C0008BE227FD8DE2B70190E03AD0A51430F419
:1008D000B70180E390E034D05A94F8CFAA94F401A1
:1008E000EA0DF11D8081B70190E02AD0A110F6CF6A
:1008F000332009F45DCEB70180E290E021D03A9434
:10090000F7CFF7018681978102C08FEF9FEF2C967A
:10091000E2E1C2C0FC010590615070400110D8F7BF
:10092000809590958E0F9F1F0895FC016150704037
:1009300001900110D8F7809590958E0F9F1F089514
:100940000F931F93CF93DF93182F092FEB018B8108
:1009500081FD03C08FEF9FEF20C082FF10C04E814A
:100960005F812C813D81421753077CF4E881F98136
:100970009F012F5F3F4F39832883108306C0E8858E
:10098000F985812F0995892B29F72E813F812F5FCA
:100990003F4F3F832E83812F902FDF91CF911F9167
:1009A0000F910895FA01AA27283051F1203181F1E1
:1009B000E8946F936E7F6E5F7F4F8F4F9F4FAF4F67
:1009C000B1E03ED0B4E03CD0670F781F891F9A1F7A
:1009D000A11D680F791F8A1F911DA11D6A0F711D2E
:1009E000811D911DA11D20D009F468943F912AE03A
:1009F000269F11243019305D3193DEF6CF01089522
:100A0000462F4770405D4193B3E00FD0C9F7F6CF52
:100A1000462F4F70405D4A3318F0495D31FD40521A
:100A2000419302D0A9F7EACFB4E0A69597958795B0
:100A300077956795BA95C9F700976105710508958F
:100A40009B01AC010A2E069457954795379527953B
:100A5000BA95C9F7620F731F841F951FA01D0895D3
:100A60002F923F924F925F926F927F928F929F92BE
:100A7000AF92BF92CF92DF92EF92FF920F931F93AC
:100A8000CF93DF93CDB7DEB7CA1BDB0B0FB6F8945D
:100A9000DEBF0FBECDBF09942A88398848885F849D
:100AA0006E847D848C849B84AA84B984C884DF800E
:100AB000EE80FD800C811B81AA81B981CE0FD11DF2
:100AC0000FB6F894DEBF0FBECDBFED010895F894C8
:020AD000FFCF56
:100AD200A0506F74693A202569004D656D6F727977
:100AE2003A2025690056616C7565207361766564EC
:100AF20000746F206D656D6F72790056616C75655B
:100B0200206C6F61640066726F6D206D656D6F722F
:020B1200790068
:00000001FF
