:1000000022C034C033C032C031C030C02FC02EC077
:100010002DC02CC02BC02AC029C028C027C026C094
:1000200025C024C023C022C021C020C01FC01EC0C4
:100030001DC01CC04AC04BC050C056C057C05BC09A
:100040005DC063C068C011241FBECFEFD4E0DEBF27
:10005000CDBF11E0A0E0B1E0EAE9F1E002C0059017
:100060000D92A230B107D9F766D095C0C9CF8AB139
:1000700084708AB98AB188708AB95A9A5B9A209A30
:10008000219A229A239A389A399A3A9A3B98439815
:10009000ECE7F0E0808183648083EAE7F0E086E0CB
:1000A00080838081806E80830895909100018917FC
:1000B00009F440C08093000190E0FC013197E930E1
:1000C000F10588F5E65EFF4F0994429818C0429A00
:1000D000419A4098289A299A05C0429A419A409A92
:1000E000289A29982A981DC0429816C0429A419889
:1000F000409A289A14C04298419809C0429A419A5D
:10010000409A289829982A9814C0429A419A409A6D
:10011000289A299A05C0429A419A409A2898299883
:100120002A9A2B9A0895429A419A409A289A299A93
:100130002A9A2B9808959BDF80E015E0CCEFD3E05E
:10014000B4DF2091780030917900129FC001139F95
:10015000900D1124BE010BD0862F2FE738E391E0DC
:10016000215030409040E1F700C00000E9CFAA1BC9
:10017000BB1B51E107C0AA1FBB1FA617B70710F092
:10018000A61BB70B881F991F5A95A9F780959095C4
:0A019000BC01CD010895F894FFCFE3
:02019A00FF0064
:00000001FF
