:1000000019C020C01FC01EC01DC01CC01BC01AC00C
:1000100019C018C017C016C015C014C013C012C034
:1000200011C010C00FC00EC00DC00CC00BC00AC064
:1000300009C008C011241FBECFEFD4E0DEBFCDBF82
:1000400017D01EC0DDCF529853985A9A5B9A209AC7
:10005000219A0895882359F02FE73AE196E021503C
:1000600030409040E1F700C000008150F3CF089588
:10007000EADFC2E085B18C2785B982E0EBDFFACFF9
:04008000F894FFCF22
:00000001FF
