:1000000019C020C01FC01EC01DC01CC01BC01AC00C
:1000100019C018C017C016C015C014C013C012C034
:1000200011C010C00FC00EC00DC00CC00BC00AC064
:1000300009C008C011241FBECFEFD4E0DEBFCDBF82
:100040000AD026C0DDCF529853985A9A5B9A219ACB
:10005000229A239A0895F7DF4A9902C04B9B02C067
:10006000299A01C029984A9B02C04B9902C02A9A3A
:1000700001C02A9889B199B193FB992790F982FB25
:10008000882780F9981711F02B9AE6CF2B98E4CFA8
:04009000F894FFCF12
:00000001FF
