:1000000019C056C067C01EC01DC01CC01BC01AC08E
:1000100019C018C017C016C015C067C013C012C0E1
:1000200011C010C00FC00EC00DC071C00BC00AC0FF
:1000300009C008C011241FBECFEFD4E0DEBFCDBF82
:10004000B8D0C4C0DDCF529853985A9A5B9A38986A
:100050004098209A219A229A8DB383608DBBE9E65D
:10006000F0E080818A608083EFE6F0E0808181604B
:100070008083ECE7F0E0808180648083EAE7F0E051
:100080008081866080838081806E808380818860AB
:1000900080830895882359F02FE73AE196E02150B4
:1000A00030409040E1F700C000008150F3CF089548
:1000B0001F920F920FB60F9211248F939F9385B1C9
:1000C00091E0892785B99F918F910F900FBE0F9076
:1000D0001F9018951F920F920FB60F921124289A15
:1000E0000F900FBE0F901F9018951F920F920FB692
:1000F0000F9211248F939F9385B194E0892785B93E
:100100009F918F910F900FBE0F901F9018951F9287
:100110000F920FB60F9211242F938F939F931092EB
:10012000810080917800909179008F3F910509F0CE
:1001300028F4809181008160809381008091780013
:10014000909179008F3F910569F060F0809178007F
:10015000909179008115924028F48091810082600D
:100160008093810080917800909179008115924070
:1001700060F080917800909179008115934028F487
:1001800080918100836080938100809178009091BC
:1001900079008115934028F08091810084608093DC
:1001A00081009F918F912F910F900FBE0F901F9004
:1001B000189549DF7894C2E0809178009091790099
:1001C00085B18C2785B982E065DFF6CFF894FFCF43
:00000001FF
