:1000000022C034C033C032C031C030C02FC02EC077
:100010002DC02CC02BC02AC029C028C027C026C094
:1000200025C024C023C022C021C020C01FC01EC0C4
:100030001DC01CC044C045C04AC050C051C055C0BE
:1000400057C05DC062C011241FBECFEFD4E0DEBF39
:10005000CDBF11E0A0E0B1E0E4EAF1E002C005901C
:100060000D92A230B107D9F760D09AC0C9CF8AB13A
:1000700084708AB98AB188708AB95A9A5B9A209A30
:10008000219A229A239A389A399A3A9A3D9A08954F
:1000900090910001891709F447C0809300012898C6
:1000A00029982A982B9840984198429890E0FC0112
:1000B0003197E930F10588F5E65EFF4F09944298E3
:1000C00018C0429A419A4098289A299A05C0429AA3
:1000D000419A409A289A29982A981DC0429816C099
:1000E000429A4198409A289A14C04298419809C06F
:1000F000429A419A409A289829982A9814C0429A7C
:10010000419A409A289A299A05C0429A419A409A5F
:10011000289829982A9A2B9A0895429A419A409AA7
:10012000289A299A2A9A2B980895A1DFC0E08C2F4B
:10013000AFDF4A9B02C04B99FACF8FE39CE901974E
:10014000F1F700C000004A990FC04B990DC080E044
:100150009FDF4A9BFECF4B9BFCCF8FE39CE901972F
:10016000F1F700C00000E2CF4A990CC0C93010F48A
:10017000CF5F01C0C0E08C2F8BDF4A99D8CF4B995D
:10018000FCCFD5CF4B99D3CFCC2311F0C15001C0B8
:10019000C9E08C2F7DDF4B99CACF4A99FCCFC7CFDE
:0401A000F894FFCF01
:0201A400FF005A
:00000001FF
