:1000000019C02BC02AC029C028C027C026C025C0BF
:1000100024C023C022C021C020C01FC01EC01DC0DC
:100020001CC01BC01AC019C018C017C016C015C00C
:1000300014C013C011241FBECFEFD4E0DEBFCDBF6C
:1000400011E0A0E0B1E0E2E9F2E002C005900D921B
:10005000AE32B107D9F7C2D01AC1D2CF209AE1E8A7
:10006000F0E0808184608083808181608083A1EB67
:10007000B0E08C9185608C93808185608083089549
:100080005B9A85E38A95F1F700005B9808959BB130
:100090009F709BB99BB1807F892B8BB9F1CFCF9398
:1000A000C82F5A9AF4DF8C2F8295807FF0DF8AE781
:1000B0008A95F1F700C0CF910895CF93C82F5A9831
:1000C000E6DF8C2F8295807FE2DF80E78A95F1F76B
:1000D000CF91089581E0F1DF8FE99FE00197F1F77B
:1000E00000C0000008958AB18C6F8AB98BB183700B
:1000F0008BB98FE295E70197F1F700C0000080E32C
:10010000C6DF8FE097E20197F1F700C00000B8DF8B
:100110008FEC97E00197F1F700C00000B1DF8FECA2
:1001200097E00197F1F700C0000080E2B0DF8FE0B8
:1001300097E20197F1F700C0000088E2BEDF8CE093
:10014000BCDF86E0BADFC6CF82E0B7DF8FE99FE091
:100150000197F1F700C000000895623059F018F4DB
:10016000613031F00895633039F0643039F008952A
:10017000805805C0805403C0805701C080539DCF74
:10018000CF93DF93EC018991882311F088DFFBCFB7
:10019000DF91CF910895EF92FF921F93CF93DF935A
:1001A00000D0CDB7DEB728E0829FC0011124806463
:1001B00069837A8382DF6981E62E7A81F72E18E0DF
:1001C000F70181917F016BDF1150D1F70F900F90F4
:1001D000DF91CF911F91FF90EF900895CF93DF9320
:1001E000CDB7DEB7AD970FB6F894DEBF0FBECDBF6B
:1001F00035DF8FE0E0E0F1E0DE015F9601900D92E7
:100200008A95E1F78EE1EFE0F1E0DE0111960190D1
:100210000D928A95E1F740E051E0E42FF0E0AFE184
:10022000B0E0AC0FBD1FAE0FBF1F8C91813021F12C
:100230001092B2001092850010928400EE0FFF1F02
:1002400081E090E08C0F9D1FE80FF91F8081918164
:1002500020918400309185008217930758F03091E7
:10026000B2002C913217A0F385B1852785B9109281
:10027000B200ECCF4F5FD1CF80E090E0AD960FB6EB
:10028000F894DEBF0FBECDBFDF91CF910895F894F3
:02029000FFCF9E
:1002920014121418141214180A0A100F0F14017DE4
:1002A2000ADC02AD06EF157D0ADC02AD06EF154E43
:0E02B2000EAD06EF154E0EAD06EF15841E00C4
:00000001FF
