:1000000019C04BC055C01EC01DC01CC01BC01AC0AB
:1000100019C018C017C016C015C055C013C012C0F3
:1000200011C010C00FC00EC00DC00CC00BC00AC064
:1000300009C008C011241FBECFEFD4E0DEBFCDBF82
:1000400054D05CC0DDCF529853985A9A5B9A389836
:100050004098209A219A229A8DB383608DBBE9E65D
:10006000F0E080818A608083E1E8F0E08081846054
:100070008083EFE6F0E080818160808308958823AB
:1000800059F02FE73AE196E0215030409040E1F7F7
:1000900000C000008150F3CF08951F920F920FB659
:1000A0000F921124289A0F900FBE0F901F90189551
:1000B0001F920F920FB60F92112428980F900FBE27
:1000C0000F901F9018951F920F920FB60F92112448
:1000D0008F939F9385B194E0892785B99F918F91E4
:1000E0000F900FBE0F901F901895ADDF7894C2E06F
:1000F00085B18C2785B982E0C2DFFACFF894FFCFB3
:00000001FF
