:1000000019C020C01FC01EC01DC01CC01BC01AC00C
:1000100019C018C017C016C015C014C013C012C034
:1000200011C010C00FC00EC00DC00CC00BC00AC064
:1000300009C008C011241FBECFEFD4E0DEBFCDBF82
:100040001CD03BC0DDCF529853985A9A5B9A219AA4
:10005000229A239A0895811102C029980895299A15
:100060000895811102C02A9808952A9A089581114D
:1000700002C02B9808952B9A0895E5DF4A9902C093
:100080004B9B02C081E001C080E0E5DF4A9B02C0DB
:100090004B9902C081E001C080E0E3DF89B199B1F2
:1000A00093FB992790F982FB882780F9981711F024
:0E00B00081E001C080E0DBDFE1CFF894FFCFFC
:00000001FF
